{
  "address": "0x045E1E0373129F78358c70aB32F82faAAC4E01a6",
  "abi": [
    {
      "anonymous": false,
      "inputs": [
        {
          "indexed": true,
          "internalType": "address",
          "name": "executor",
          "type": "address"
        },
        {
          "indexed": true,
          "internalType": "address",
          "name": "announcer",
          "type": "address"
        },
        {
          "indexed": false,
          "internalType": "bytes32",
          "name": "txHash",
          "type": "bytes32"
        }
      ],
      "name": "NewAnnouncement",
      "type": "event"
    },
    {
      "inputs": [],
      "name": "DELAYED_TRANSACTION_TYPEHASH",
      "outputs": [
        {
          "internalType": "bytes32",
          "name": "",
          "type": "bytes32"
        }
      ],
      "stateMutability": "view",
      "type": "function"
    },
    {
      "inputs": [],
      "name": "DOMAIN_SEPARATOR_TYPEHASH",
      "outputs": [
        {
          "internalType": "bytes32",
          "name": "",
          "type": "bytes32"
        }
      ],
      "stateMutability": "view",
      "type": "function"
    },
    {
      "inputs": [],
      "name": "NAME",
      "outputs": [
        {
          "internalType": "string",
          "name": "",
          "type": "string"
        }
      ],
      "stateMutability": "view",
      "type": "function"
    },
    {
      "inputs": [],
      "name": "VERSION",
      "outputs": [
        {
          "internalType": "string",
          "name": "",
          "type": "string"
        }
      ],
      "stateMutability": "view",
      "type": "function"
    },
    {
      "inputs": [
        {
          "internalType": "address",
          "name": "executor",
          "type": "address"
        },
        {
          "internalType": "address",
          "name": "to",
          "type": "address"
        },
        {
          "internalType": "uint256",
          "name": "value",
          "type": "uint256"
        },
        {
          "internalType": "bytes",
          "name": "data",
          "type": "bytes"
        },
        {
          "internalType": "enum Enum.Operation",
          "name": "operation",
          "type": "uint8"
        },
        {
          "internalType": "uint256",
          "name": "nonce",
          "type": "uint256"
        }
      ],
      "name": "announceTransaction",
      "outputs": [],
      "stateMutability": "nonpayable",
      "type": "function"
    },
    {
      "inputs": [
        {
          "internalType": "bytes32",
          "name": "",
          "type": "bytes32"
        }
      ],
      "name": "announcements",
      "outputs": [
        {
          "internalType": "address",
          "name": "announcer",
          "type": "address"
        },
        {
          "internalType": "uint64",
          "name": "execTime",
          "type": "uint64"
        },
        {
          "internalType": "bool",
          "name": "requireAnnouncer",
          "type": "bool"
        },
        {
          "internalType": "bool",
          "name": "executed",
          "type": "bool"
        }
      ],
      "stateMutability": "view",
      "type": "function"
    },
    {
      "inputs": [
        {
          "internalType": "address",
          "name": "to",
          "type": "address"
        },
        {
          "internalType": "uint256",
          "name": "value",
          "type": "uint256"
        },
        {
          "internalType": "bytes",
          "name": "data",
          "type": "bytes"
        },
        {
          "internalType": "enum Enum.Operation",
          "name": "operation",
          "type": "uint8"
        },
        {
          "internalType": "uint256",
          "name": "nonce",
          "type": "uint256"
        },
        {
          "internalType": "address",
          "name": "announcer",
          "type": "address"
        },
        {
          "internalType": "uint64",
          "name": "execTime",
          "type": "uint64"
        },
        {
          "internalType": "bool",
          "name": "requireAnnouncer",
          "type": "bool"
        }
      ],
      "name": "approveTransactionAnnouncement",
      "outputs": [],
      "stateMutability": "nonpayable",
      "type": "function"
    },
    {
      "inputs": [
        {
          "internalType": "address",
          "name": "",
          "type": "address"
        },
        {
          "internalType": "address",
          "name": "",
          "type": "address"
        }
      ],
      "name": "configs",
      "outputs": [
        {
          "internalType": "uint64",
          "name": "delay",
          "type": "uint64"
        },
        {
          "internalType": "bool",
          "name": "requireAnnouncer",
          "type": "bool"
        }
      ],
      "stateMutability": "view",
      "type": "function"
    },
    {
      "inputs": [
        {
          "internalType": "address",
          "name": "executor",
          "type": "address"
        },
        {
          "internalType": "address",
          "name": "to",
          "type": "address"
        },
        {
          "internalType": "uint256",
          "name": "value",
          "type": "uint256"
        },
        {
          "internalType": "bytes",
          "name": "data",
          "type": "bytes"
        },
        {
          "internalType": "enum Enum.Operation",
          "name": "operation",
          "type": "uint8"
        },
        {
          "internalType": "uint256",
          "name": "nonce",
          "type": "uint256"
        }
      ],
      "name": "executeTransaction",
      "outputs": [],
      "stateMutability": "nonpayable",
      "type": "function"
    },
    {
      "inputs": [],
      "name": "getChainId",
      "outputs": [
        {
          "internalType": "uint256",
          "name": "",
          "type": "uint256"
        }
      ],
      "stateMutability": "view",
      "type": "function"
    },
    {
      "inputs": [
        {
          "internalType": "address",
          "name": "executor",
          "type": "address"
        },
        {
          "internalType": "address",
          "name": "to",
          "type": "address"
        },
        {
          "internalType": "uint256",
          "name": "value",
          "type": "uint256"
        },
        {
          "internalType": "bytes",
          "name": "data",
          "type": "bytes"
        },
        {
          "internalType": "enum Enum.Operation",
          "name": "operation",
          "type": "uint8"
        },
        {
          "internalType": "uint256",
          "name": "nonce",
          "type": "uint256"
        }
      ],
      "name": "getTransactionHash",
      "outputs": [
        {
          "internalType": "bytes32",
          "name": "",
          "type": "bytes32"
        }
      ],
      "stateMutability": "view",
      "type": "function"
    },
    {
      "inputs": [
        {
          "internalType": "address",
          "name": "to",
          "type": "address"
        },
        {
          "internalType": "uint256",
          "name": "value",
          "type": "uint256"
        },
        {
          "internalType": "bytes",
          "name": "data",
          "type": "bytes"
        },
        {
          "internalType": "enum Enum.Operation",
          "name": "operation",
          "type": "uint8"
        },
        {
          "internalType": "uint256",
          "name": "nonce",
          "type": "uint256"
        }
      ],
      "name": "revokeTransactionAnnouncement",
      "outputs": [],
      "stateMutability": "nonpayable",
      "type": "function"
    },
    {
      "inputs": [
        {
          "internalType": "address",
          "name": "announcer",
          "type": "address"
        },
        {
          "internalType": "uint64",
          "name": "delay",
          "type": "uint64"
        },
        {
          "internalType": "bool",
          "name": "requireAnnouncer",
          "type": "bool"
        }
      ],
      "name": "updateConfig",
      "outputs": [],
      "stateMutability": "nonpayable",
      "type": "function"
    }
  ],
  "args": [],
  "solcInputHash": "10542dd595058dcfec7976d84885298f",
  "bytecode": "0x608060405234801561001057600080fd5b50611d1f806100206000396000f3fe608060405234801561001057600080fd5b50600436106100cf5760003560e01c80638030c3a31161008c578063be1c179611610066578063be1c179614610204578063c2894cbe14610220578063c959c16e1461023c578063ffa1ad741461026c576100cf565b80638030c3a3146101ac578063a3f4df7e146101ca578063ad7b49fb146101e8576100cf565b80631bec1a92146100d45780631db61b54146101055780633408e4701461012357806368d733101461014157806376768d681461015d5780637d40d6c214610179575b600080fd5b6100ee60048036038101906100e99190611108565b61028a565b6040516100fc929190611971565b60405180910390f35b61010d6102dc565b60405161011a91906117f3565b60405180910390f35b61012b610303565b6040516101389190611956565b60405180910390f35b61015b60048036038101906101569190611144565b610310565b005b61017760048036038101906101729190611144565b6105cd565b005b610193600480360381019061018e91906113b6565b61097a565b6040516101a394939291906117ae565b60405180910390f35b6101b46109f8565b6040516101c191906117f3565b60405180910390f35b6101d2610a1c565b6040516101df91906118b4565b60405180910390f35b61020260048036038101906101fd9190611274565b610a55565b005b61021e6004803603810190610219919061133e565b610d29565b005b61023a600480360381019061023591906111e5565b610e1c565b005b61025660048036038101906102519190611144565b610eb6565b60405161026391906117f3565b60405180910390f35b610274610ed9565b60405161028191906118b4565b60405180910390f35b6000602052816000526040600020602052806000526040600020600091509150508060000160009054906101000a900467ffffffffffffffff16908060000160089054906101000a900460ff16905082565b7f47e79534a245952e8b16893a336b85a3d9ea9fa8c573f3d803afb92a7946921860001b81565b6000804690508091505090565b60008060008873ffffffffffffffffffffffffffffffffffffffff1673ffffffffffffffffffffffffffffffffffffffff16815260200190815260200160002060003373ffffffffffffffffffffffffffffffffffffffff1673ffffffffffffffffffffffffffffffffffffffff1681526020019081526020016000206040518060400160405290816000820160009054906101000a900467ffffffffffffffff1667ffffffffffffffff1667ffffffffffffffff1681526020016000820160089054906101000a900460ff16151515158152505090506000816000015167ffffffffffffffff1611610438576040517f08c379a000000000000000000000000000000000000000000000000000000000815260040161042f90611936565b60405180910390fd5b600081600001514261044a9190611a33565b90506000878787878733878960200151604051602401610471989796959493929190611729565b6040516020818303038152906040527fad7b49fb000000000000000000000000000000000000000000000000000000007bffffffffffffffffffffffffffffffffffffffffffffffffffffffff19166020820180517bffffffffffffffffffffffffffffffffffffffffffffffffffffffff838183161783525050505090508873ffffffffffffffffffffffffffffffffffffffff1663468721a73060008460006040518563ffffffff1660e01b81526004016105319493929190611691565b602060405180830381600087803b15801561054b57600080fd5b505af115801561055f573d6000803e3d6000fd5b505050506040513d601f19601f82011682018060405250810190610583919061138d565b6105c2576040517f08c379a00000000000000000000000000000000000000000000000000000000081526004016105b990611916565b60405180910390fd5b505050505050505050565b60006105dd878787878787610eb6565b90506000600160008381526020019081526020016000206040518060800160405290816000820160009054906101000a900473ffffffffffffffffffffffffffffffffffffffff1673ffffffffffffffffffffffffffffffffffffffff1673ffffffffffffffffffffffffffffffffffffffff1681526020016000820160149054906101000a900467ffffffffffffffff1667ffffffffffffffff1667ffffffffffffffff16815260200160008201601c9054906101000a900460ff1615151515815260200160008201601d9054906101000a900460ff161515151581525050905042816020015167ffffffffffffffff161115610710576040517f08c379a0000000000000000000000000000000000000000000000000000000008152600401610707906118f6565b60405180910390fd5b806040015115806107c1575060008060008a73ffffffffffffffffffffffffffffffffffffffff1673ffffffffffffffffffffffffffffffffffffffff1681526020019081526020016000206000836000015173ffffffffffffffffffffffffffffffffffffffff1673ffffffffffffffffffffffffffffffffffffffff16815260200190815260200160002060000160009054906101000a900467ffffffffffffffff1667ffffffffffffffff16115b610800576040517f08c379a00000000000000000000000000000000000000000000000000000000081526004016107f790611936565b60405180910390fd5b6001816060019015159081151581525050806001600084815260200190815260200160002060008201518160000160006101000a81548173ffffffffffffffffffffffffffffffffffffffff021916908373ffffffffffffffffffffffffffffffffffffffff16021790555060208201518160000160146101000a81548167ffffffffffffffff021916908367ffffffffffffffff160217905550604082015181600001601c6101000a81548160ff021916908315150217905550606082015181600001601d6101000a81548160ff0219169083151502179055509050508773ffffffffffffffffffffffffffffffffffffffff1663468721a7888888886040518563ffffffff1660e01b815260040161091d94939291906116dd565b602060405180830381600087803b15801561093757600080fd5b505af115801561094b573d6000803e3d6000fd5b505050506040513d601f19601f8201168201806040525081019061096f919061138d565b505050505050505050565b60016020528060005260406000206000915090508060000160009054906101000a900473ffffffffffffffffffffffffffffffffffffffff16908060000160149054906101000a900467ffffffffffffffff169080600001601c9054906101000a900460ff169080600001601d9054906101000a900460ff16905084565b7f26b3c09c30e365f49b0eb65e39ec1e16b5ebaded063648e49599b6b8abc3ba8681565b6040518060400160405280601a81526020017f44656c61796564205472616e73616374696f6e204d6f64756c6500000000000081525081565b6000610a65338a8a8a8a8a610eb6565b90506000600160008381526020019081526020016000206040518060800160405290816000820160009054906101000a900473ffffffffffffffffffffffffffffffffffffffff1673ffffffffffffffffffffffffffffffffffffffff1673ffffffffffffffffffffffffffffffffffffffff1681526020016000820160149054906101000a900467ffffffffffffffff1667ffffffffffffffff1667ffffffffffffffff16815260200160008201601c9054906101000a900460ff1615151515815260200160008201601d9054906101000a900460ff16151515158152505090508060600151158015610b6757506000816020015167ffffffffffffffff16145b610ba6576040517f08c379a0000000000000000000000000000000000000000000000000000000008152600401610b9d906118d6565b60405180910390fd5b60405180608001604052808673ffffffffffffffffffffffffffffffffffffffff1681526020018567ffffffffffffffff1681526020018415158152602001600015158152506001600084815260200190815260200160002060008201518160000160006101000a81548173ffffffffffffffffffffffffffffffffffffffff021916908373ffffffffffffffffffffffffffffffffffffffff16021790555060208201518160000160146101000a81548167ffffffffffffffff021916908367ffffffffffffffff160217905550604082015181600001601c6101000a81548160ff021916908315150217905550606082015181600001601d6101000a81548160ff0219169083151502179055509050508473ffffffffffffffffffffffffffffffffffffffff163373ffffffffffffffffffffffffffffffffffffffff167fdb799d52da78807d5f62c8d7f10af33364d71380f01b766f0c0c92910a2d881b84604051610d1591906117f3565b60405180910390a350505050505050505050565b60405180604001604052808367ffffffffffffffff1681526020018215158152506000803373ffffffffffffffffffffffffffffffffffffffff1673ffffffffffffffffffffffffffffffffffffffff16815260200190815260200160002060008573ffffffffffffffffffffffffffffffffffffffff1673ffffffffffffffffffffffffffffffffffffffff16815260200190815260200160002060008201518160000160006101000a81548167ffffffffffffffff021916908367ffffffffffffffff16021790555060208201518160000160086101000a81548160ff021916908315150217905550905050505050565b6000610e2c338787878787610eb6565b905060016000828152602001908152602001600020600080820160006101000a81549073ffffffffffffffffffffffffffffffffffffffff02191690556000820160146101000a81549067ffffffffffffffff021916905560008201601c6101000a81549060ff021916905560008201601d6101000a81549060ff02191690555050505050505050565b6000610ec6878787878787610f12565b8051906020012090509695505050505050565b6040518060400160405280600581526020017f312e302e3000000000000000000000000000000000000000000000000000000081525081565b60606000610f1e610303565b905060007f47e79534a245952e8b16893a336b85a3d9ea9fa8c573f3d803afb92a7946921860001b8230604051602001610f5a9392919061187d565b60405160208183030381529060405280519060200120905060007f26b3c09c30e365f49b0eb65e39ec1e16b5ebaded063648e49599b6b8abc3ba868a8a8a8a805190602001208a8a604051602001610fb8979695949392919061180e565b604051602081830303815290604052805190602001209050601960f81b600160f81b8383604051602001610fef9493929190611643565b60405160208183030381529060405293505050509695505050505050565b600061102061101b846119cb565b61199a565b90508281526020810184848401111561103857600080fd5b611043848285611b5e565b509392505050565b60008135905061105a81611c66565b92915050565b60008135905061106f81611c7d565b92915050565b60008151905061108481611c7d565b92915050565b60008135905061109981611c94565b92915050565b600082601f8301126110b057600080fd5b81356110c084826020860161100d565b91505092915050565b6000813590506110d881611cab565b92915050565b6000813590506110ed81611cbb565b92915050565b60008135905061110281611cd2565b92915050565b6000806040838503121561111b57600080fd5b60006111298582860161104b565b925050602061113a8582860161104b565b9150509250929050565b60008060008060008060c0878903121561115d57600080fd5b600061116b89828a0161104b565b965050602061117c89828a0161104b565b955050604061118d89828a016110de565b945050606087013567ffffffffffffffff8111156111aa57600080fd5b6111b689828a0161109f565b93505060806111c789828a016110c9565b92505060a06111d889828a016110de565b9150509295509295509295565b600080600080600060a086880312156111fd57600080fd5b600061120b8882890161104b565b955050602061121c888289016110de565b945050604086013567ffffffffffffffff81111561123957600080fd5b6112458882890161109f565b9350506060611256888289016110c9565b9250506080611267888289016110de565b9150509295509295909350565b600080600080600080600080610100898b03121561129157600080fd5b600061129f8b828c0161104b565b98505060206112b08b828c016110de565b975050604089013567ffffffffffffffff8111156112cd57600080fd5b6112d98b828c0161109f565b96505060606112ea8b828c016110c9565b95505060806112fb8b828c016110de565b94505060a061130c8b828c0161104b565b93505060c061131d8b828c016110f3565b92505060e061132e8b828c01611060565b9150509295985092959890939650565b60008060006060848603121561135357600080fd5b60006113618682870161104b565b9350506020611372868287016110f3565b925050604061138386828701611060565b9150509250925092565b60006020828403121561139f57600080fd5b60006113ad84828501611075565b91505092915050565b6000602082840312156113c857600080fd5b60006113d68482850161108a565b91505092915050565b6113e881611a71565b82525050565b6113f781611a83565b82525050565b61140e61140982611a8f565b611ba0565b82525050565b61141d81611abb565b82525050565b61143461142f82611abb565b611baa565b82525050565b6000611445826119fb565b61144f8185611a11565b935061145f818560208601611b6d565b61146881611c41565b840191505092915050565b61147c81611b16565b82525050565b61148b81611b3a565b82525050565b61149a81611b4c565b82525050565b60006114ab82611a06565b6114b58185611a22565b93506114c5818560208601611b6d565b6114ce81611c41565b840191505092915050565b60006114e6602683611a22565b91507f43616e6e6f7420616e6e6f756e63652073616d65207472616e73616374696f6e60008301527f20616761696e00000000000000000000000000000000000000000000000000006020830152604082019050919050565b600061154c601e83611a22565b91507f43616e6e6f742065786563757465207472616e73616374696f6e2079657400006000830152602082019050919050565b600061158c601e83611a22565b91507f436f756c64206e6f7420616e6e6f756e6365207472616e73616374696f6e00006000830152602082019050919050565b60006115cc603683611a22565b91507f436f756c64206e6f742066696e642076616c696420636f6e66696720666f722060008301527f6578656375746f7220616e6420616e6e6f756e636572000000000000000000006020830152604082019050919050565b61162e81611af8565b82525050565b61163d81611b02565b82525050565b600061164f82876113fd565b60018201915061165f82866113fd565b60018201915061166f8285611423565b60208201915061167f8284611423565b60208201915081905095945050505050565b60006080820190506116a660008301876113df565b6116b36020830186611491565b81810360408301526116c5818561143a565b90506116d46060830184611482565b95945050505050565b60006080820190506116f260008301876113df565b6116ff6020830186611625565b8181036040830152611711818561143a565b90506117206060830184611482565b95945050505050565b60006101008201905061173f600083018b6113df565b61174c602083018a611625565b818103604083015261175e818961143a565b905061176d6060830188611482565b61177a6080830187611625565b61178760a08301866113df565b61179460c0830185611634565b6117a160e08301846113ee565b9998505050505050505050565b60006080820190506117c360008301876113df565b6117d06020830186611634565b6117dd60408301856113ee565b6117ea60608301846113ee565b95945050505050565b60006020820190506118086000830184611414565b92915050565b600060e082019050611823600083018a611414565b61183060208301896113df565b61183d60408301886113df565b61184a6060830187611625565b6118576080830186611414565b61186460a0830185611482565b61187160c0830184611625565b98975050505050505050565b60006060820190506118926000830186611414565b61189f6020830185611625565b6118ac6040830184611473565b949350505050565b600060208201905081810360008301526118ce81846114a0565b905092915050565b600060208201905081810360008301526118ef816114d9565b9050919050565b6000602082019050818103600083015261190f8161153f565b9050919050565b6000602082019050818103600083015261192f8161157f565b9050919050565b6000602082019050818103600083015261194f816115bf565b9050919050565b600060208201905061196b6000830184611625565b92915050565b60006040820190506119866000830185611634565b61199360208301846113ee565b9392505050565b6000604051905081810181811067ffffffffffffffff821117156119c1576119c0611c12565b5b8060405250919050565b600067ffffffffffffffff8211156119e6576119e5611c12565b5b601f19601f8301169050602081019050919050565b600081519050919050565b600081519050919050565b600082825260208201905092915050565b600082825260208201905092915050565b6000611a3e82611b02565b9150611a4983611b02565b92508267ffffffffffffffff03821115611a6657611a65611bb4565b5b828201905092915050565b6000611a7c82611ad8565b9050919050565b60008115159050919050565b60007fff0000000000000000000000000000000000000000000000000000000000000082169050919050565b6000819050919050565b6000819050611ad382611c52565b919050565b600073ffffffffffffffffffffffffffffffffffffffff82169050919050565b6000819050919050565b600067ffffffffffffffff82169050919050565b6000611b2182611b28565b9050919050565b6000611b3382611ad8565b9050919050565b6000611b4582611ac5565b9050919050565b6000611b5782611af8565b9050919050565b82818337600083830152505050565b60005b83811015611b8b578082015181840152602081019050611b70565b83811115611b9a576000848401525b50505050565b6000819050919050565b6000819050919050565b7f4e487b7100000000000000000000000000000000000000000000000000000000600052601160045260246000fd5b7f4e487b7100000000000000000000000000000000000000000000000000000000600052602160045260246000fd5b7f4e487b7100000000000000000000000000000000000000000000000000000000600052604160045260246000fd5b6000601f19601f8301169050919050565b60028110611c6357611c62611be3565b5b50565b611c6f81611a71565b8114611c7a57600080fd5b50565b611c8681611a83565b8114611c9157600080fd5b50565b611c9d81611abb565b8114611ca857600080fd5b50565b60028110611cb857600080fd5b50565b611cc481611af8565b8114611ccf57600080fd5b50565b611cdb81611b02565b8114611ce657600080fd5b5056fea2646970667358221220d0ca7e9f84b79b2324b85ec5fde6f05e0af85423e1f2e5c15916016a9dadb23e64736f6c63430008000033",
  "devdoc": {
    "kind": "dev",
    "methods": {
      "executeTransaction(address,address,uint256,bytes,uint8,uint256)": {
        "details": "This method can be triggered by anyone, as transaction announcement is authorized.",
        "params": {
          "data": "Data payload of delayed transaction.",
          "executor": "Contract that will execute the delayed transaction.",
          "nonce": "None of delayed transaction.",
          "operation": "Operation type of delayed transaction.",
          "to": "Destination address of delayed transaction.",
          "value": "Ether value of delayed transaction."
        }
      },
      "getChainId()": {
        "details": "Returns the chain id used by this contract."
      }
    },
    "version": 1
  },
  "userdoc": {
    "kind": "user",
    "methods": {
      "executeTransaction(address,address,uint256,bytes,uint8,uint256)": {
        "notice": "Allows to trigger execution of a delayed transaction that has been announced before."
      }
    },
    "version": 1
  },
  "storageLayout": {
    "storage": [
      {
        "astId": 64,
        "contract": "contracts/DelayedTxModule.sol:DelayedTxModule",
        "label": "configs",
        "offset": 0,
        "slot": "0",
        "type": "t_mapping(t_address,t_mapping(t_address,t_struct(Config)48_storage))"
      },
      {
        "astId": 69,
        "contract": "contracts/DelayedTxModule.sol:DelayedTxModule",
        "label": "announcements",
        "offset": 0,
        "slot": "1",
        "type": "t_mapping(t_bytes32,t_struct(Announcement)57_storage)"
      }
    ],
    "types": {
      "t_address": {
        "encoding": "inplace",
        "label": "address",
        "numberOfBytes": "20"
      },
      "t_bool": {
        "encoding": "inplace",
        "label": "bool",
        "numberOfBytes": "1"
      },
      "t_bytes32": {
        "encoding": "inplace",
        "label": "bytes32",
        "numberOfBytes": "32"
      },
      "t_mapping(t_address,t_mapping(t_address,t_struct(Config)48_storage))": {
        "encoding": "mapping",
        "key": "t_address",
        "label": "mapping(address => mapping(address => struct DelayedTxModule.Config))",
        "numberOfBytes": "32",
        "value": "t_mapping(t_address,t_struct(Config)48_storage)"
      },
      "t_mapping(t_address,t_struct(Config)48_storage)": {
        "encoding": "mapping",
        "key": "t_address",
        "label": "mapping(address => struct DelayedTxModule.Config)",
        "numberOfBytes": "32",
        "value": "t_struct(Config)48_storage"
      },
      "t_mapping(t_bytes32,t_struct(Announcement)57_storage)": {
        "encoding": "mapping",
        "key": "t_bytes32",
        "label": "mapping(bytes32 => struct DelayedTxModule.Announcement)",
        "numberOfBytes": "32",
        "value": "t_struct(Announcement)57_storage"
      },
      "t_struct(Announcement)57_storage": {
        "encoding": "inplace",
        "label": "struct DelayedTxModule.Announcement",
        "members": [
          {
            "astId": 50,
            "contract": "contracts/DelayedTxModule.sol:DelayedTxModule",
            "label": "announcer",
            "offset": 0,
            "slot": "0",
            "type": "t_address"
          },
          {
            "astId": 52,
            "contract": "contracts/DelayedTxModule.sol:DelayedTxModule",
            "label": "execTime",
            "offset": 20,
            "slot": "0",
            "type": "t_uint64"
          },
          {
            "astId": 54,
            "contract": "contracts/DelayedTxModule.sol:DelayedTxModule",
            "label": "requireAnnouncer",
            "offset": 28,
            "slot": "0",
            "type": "t_bool"
          },
          {
            "astId": 56,
            "contract": "contracts/DelayedTxModule.sol:DelayedTxModule",
            "label": "executed",
            "offset": 29,
            "slot": "0",
            "type": "t_bool"
          }
        ],
        "numberOfBytes": "32"
      },
      "t_struct(Config)48_storage": {
        "encoding": "inplace",
        "label": "struct DelayedTxModule.Config",
        "members": [
          {
            "astId": 45,
            "contract": "contracts/DelayedTxModule.sol:DelayedTxModule",
            "label": "delay",
            "offset": 0,
            "slot": "0",
            "type": "t_uint64"
          },
          {
            "astId": 47,
            "contract": "contracts/DelayedTxModule.sol:DelayedTxModule",
            "label": "requireAnnouncer",
            "offset": 8,
            "slot": "0",
            "type": "t_bool"
          }
        ],
        "numberOfBytes": "32"
      },
      "t_uint64": {
        "encoding": "inplace",
        "label": "uint64",
        "numberOfBytes": "8"
      }
    }
  }
}