{
  "address": "0x3F7db8B9a00828Bed73cE5efC3BE8285aC375f0f",
  "abi": [
    {
      "anonymous": false,
      "inputs": [
        {
          "indexed": true,
          "internalType": "address",
          "name": "executor",
          "type": "address"
        },
        {
          "indexed": true,
          "internalType": "address",
          "name": "announcer",
          "type": "address"
        },
        {
          "indexed": false,
          "internalType": "bytes32",
          "name": "txHash",
          "type": "bytes32"
        }
      ],
      "name": "NewAnnouncement",
      "type": "event"
    },
    {
      "anonymous": false,
      "inputs": [
        {
          "indexed": true,
          "internalType": "address",
          "name": "executor",
          "type": "address"
        },
        {
          "indexed": true,
          "internalType": "address",
          "name": "announcer",
          "type": "address"
        },
        {
          "indexed": false,
          "internalType": "uint64",
          "name": "delay",
          "type": "uint64"
        },
        {
          "indexed": false,
          "internalType": "bool",
          "name": "requireAnnouncer",
          "type": "bool"
        }
      ],
      "name": "UpdatedConfig",
      "type": "event"
    },
    {
      "inputs": [],
      "name": "DELAYED_TRANSACTION_TYPEHASH",
      "outputs": [
        {
          "internalType": "bytes32",
          "name": "",
          "type": "bytes32"
        }
      ],
      "stateMutability": "view",
      "type": "function"
    },
    {
      "inputs": [],
      "name": "DOMAIN_SEPARATOR_TYPEHASH",
      "outputs": [
        {
          "internalType": "bytes32",
          "name": "",
          "type": "bytes32"
        }
      ],
      "stateMutability": "view",
      "type": "function"
    },
    {
      "inputs": [],
      "name": "NAME",
      "outputs": [
        {
          "internalType": "string",
          "name": "",
          "type": "string"
        }
      ],
      "stateMutability": "view",
      "type": "function"
    },
    {
      "inputs": [],
      "name": "VERSION",
      "outputs": [
        {
          "internalType": "string",
          "name": "",
          "type": "string"
        }
      ],
      "stateMutability": "view",
      "type": "function"
    },
    {
      "inputs": [
        {
          "internalType": "address",
          "name": "executor",
          "type": "address"
        },
        {
          "internalType": "address",
          "name": "to",
          "type": "address"
        },
        {
          "internalType": "uint256",
          "name": "value",
          "type": "uint256"
        },
        {
          "internalType": "bytes",
          "name": "data",
          "type": "bytes"
        },
        {
          "internalType": "enum Enum.Operation",
          "name": "operation",
          "type": "uint8"
        },
        {
          "internalType": "uint256",
          "name": "nonce",
          "type": "uint256"
        }
      ],
      "name": "announceTransaction",
      "outputs": [],
      "stateMutability": "nonpayable",
      "type": "function"
    },
    {
      "inputs": [
        {
          "internalType": "bytes32",
          "name": "",
          "type": "bytes32"
        }
      ],
      "name": "announcements",
      "outputs": [
        {
          "internalType": "address",
          "name": "announcer",
          "type": "address"
        },
        {
          "internalType": "uint64",
          "name": "execTime",
          "type": "uint64"
        },
        {
          "internalType": "bool",
          "name": "requireAnnouncer",
          "type": "bool"
        },
        {
          "internalType": "bool",
          "name": "executed",
          "type": "bool"
        }
      ],
      "stateMutability": "view",
      "type": "function"
    },
    {
      "inputs": [
        {
          "internalType": "address",
          "name": "to",
          "type": "address"
        },
        {
          "internalType": "uint256",
          "name": "value",
          "type": "uint256"
        },
        {
          "internalType": "bytes",
          "name": "data",
          "type": "bytes"
        },
        {
          "internalType": "enum Enum.Operation",
          "name": "operation",
          "type": "uint8"
        },
        {
          "internalType": "uint256",
          "name": "nonce",
          "type": "uint256"
        },
        {
          "internalType": "address",
          "name": "announcer",
          "type": "address"
        },
        {
          "internalType": "uint64",
          "name": "execTime",
          "type": "uint64"
        },
        {
          "internalType": "bool",
          "name": "requireAnnouncer",
          "type": "bool"
        }
      ],
      "name": "approveTransactionAnnouncement",
      "outputs": [],
      "stateMutability": "nonpayable",
      "type": "function"
    },
    {
      "inputs": [
        {
          "internalType": "address",
          "name": "",
          "type": "address"
        },
        {
          "internalType": "address",
          "name": "",
          "type": "address"
        }
      ],
      "name": "configs",
      "outputs": [
        {
          "internalType": "uint64",
          "name": "delay",
          "type": "uint64"
        },
        {
          "internalType": "bool",
          "name": "requireAnnouncer",
          "type": "bool"
        }
      ],
      "stateMutability": "view",
      "type": "function"
    },
    {
      "inputs": [
        {
          "internalType": "address",
          "name": "executor",
          "type": "address"
        },
        {
          "internalType": "address",
          "name": "to",
          "type": "address"
        },
        {
          "internalType": "uint256",
          "name": "value",
          "type": "uint256"
        },
        {
          "internalType": "bytes",
          "name": "data",
          "type": "bytes"
        },
        {
          "internalType": "enum Enum.Operation",
          "name": "operation",
          "type": "uint8"
        },
        {
          "internalType": "uint256",
          "name": "nonce",
          "type": "uint256"
        }
      ],
      "name": "executeTransaction",
      "outputs": [],
      "stateMutability": "nonpayable",
      "type": "function"
    },
    {
      "inputs": [
        {
          "internalType": "address",
          "name": "executor",
          "type": "address"
        },
        {
          "internalType": "address",
          "name": "to",
          "type": "address"
        },
        {
          "internalType": "uint256",
          "name": "value",
          "type": "uint256"
        },
        {
          "internalType": "bytes",
          "name": "data",
          "type": "bytes"
        },
        {
          "internalType": "enum Enum.Operation",
          "name": "operation",
          "type": "uint8"
        },
        {
          "internalType": "uint256",
          "name": "nonce",
          "type": "uint256"
        }
      ],
      "name": "generateTransactionHashData",
      "outputs": [
        {
          "internalType": "bytes",
          "name": "",
          "type": "bytes"
        }
      ],
      "stateMutability": "view",
      "type": "function"
    },
    {
      "inputs": [],
      "name": "getChainId",
      "outputs": [
        {
          "internalType": "uint256",
          "name": "",
          "type": "uint256"
        }
      ],
      "stateMutability": "view",
      "type": "function"
    },
    {
      "inputs": [
        {
          "internalType": "address",
          "name": "executor",
          "type": "address"
        },
        {
          "internalType": "address",
          "name": "to",
          "type": "address"
        },
        {
          "internalType": "uint256",
          "name": "value",
          "type": "uint256"
        },
        {
          "internalType": "bytes",
          "name": "data",
          "type": "bytes"
        },
        {
          "internalType": "enum Enum.Operation",
          "name": "operation",
          "type": "uint8"
        },
        {
          "internalType": "uint256",
          "name": "nonce",
          "type": "uint256"
        }
      ],
      "name": "getTransactionHash",
      "outputs": [
        {
          "internalType": "bytes32",
          "name": "",
          "type": "bytes32"
        }
      ],
      "stateMutability": "view",
      "type": "function"
    },
    {
      "inputs": [
        {
          "internalType": "address",
          "name": "to",
          "type": "address"
        },
        {
          "internalType": "uint256",
          "name": "value",
          "type": "uint256"
        },
        {
          "internalType": "bytes",
          "name": "data",
          "type": "bytes"
        },
        {
          "internalType": "enum Enum.Operation",
          "name": "operation",
          "type": "uint8"
        },
        {
          "internalType": "uint256",
          "name": "nonce",
          "type": "uint256"
        }
      ],
      "name": "revokeTransactionAnnouncement",
      "outputs": [],
      "stateMutability": "nonpayable",
      "type": "function"
    },
    {
      "inputs": [
        {
          "internalType": "address",
          "name": "announcer",
          "type": "address"
        },
        {
          "internalType": "uint64",
          "name": "delay",
          "type": "uint64"
        },
        {
          "internalType": "bool",
          "name": "requireAnnouncer",
          "type": "bool"
        }
      ],
      "name": "updateConfig",
      "outputs": [],
      "stateMutability": "nonpayable",
      "type": "function"
    }
  ],
  "transactionHash": "0x47d445ace32154c7d484a1a22417d5497945abb0bb4f30da2fa597ed68cc6457",
  "args": [],
  "solcInputHash": "437153e0daf551d85874600acdc64e7a",
  "bytecode": "0x608060405234801561001057600080fd5b50611df3806100206000396000f3fe608060405234801561001057600080fd5b50600436106100ea5760003560e01c8063a3f4df7e1161008c578063c2894cbe11610066578063c2894cbe1461023b578063c959c16e14610257578063f649255714610287578063ffa1ad74146102b7576100ea565b8063a3f4df7e146101e5578063ad7b49fb14610203578063be1c17961461021f576100ea565b806368d73310116100c857806368d733101461015c57806376768d68146101785780637d40d6c2146101945780638030c3a3146101c7576100ea565b80631bec1a92146100ef5780631db61b54146101205780633408e4701461013e575b600080fd5b610109600480360381019061010491906111ba565b6102d5565b604051610117929190611a45565b60405180910390f35b610128610327565b60405161013591906118a5565b60405180910390f35b61014661034e565b6040516101539190611a2a565b60405180910390f35b610176600480360381019061017191906111f6565b61035b565b005b610192600480360381019061018d91906111f6565b610618565b005b6101ae60048036038101906101a99190611468565b6109c5565b6040516101be9493929190611860565b60405180910390f35b6101cf610a43565b6040516101dc91906118a5565b60405180910390f35b6101ed610a67565b6040516101fa9190611988565b60405180910390f35b61021d60048036038101906102189190611326565b610aa0565b005b610239600480360381019061023491906113f0565b610d74565b005b61025560048036038101906102509190611297565b610ece565b005b610271600480360381019061026c91906111f6565b610f68565b60405161027e91906118a5565b60405180910390f35b6102a1600480360381019061029c91906111f6565b610f8b565b6040516102ae9190611966565b60405180910390f35b6102bf611086565b6040516102cc9190611988565b60405180910390f35b6000602052816000526040600020602052806000526040600020600091509150508060000160009054906101000a900467ffffffffffffffff16908060000160089054906101000a900460ff16905082565b7f47e79534a245952e8b16893a336b85a3d9ea9fa8c573f3d803afb92a7946921860001b81565b6000804690508091505090565b60008060008873ffffffffffffffffffffffffffffffffffffffff1673ffffffffffffffffffffffffffffffffffffffff16815260200190815260200160002060003373ffffffffffffffffffffffffffffffffffffffff1673ffffffffffffffffffffffffffffffffffffffff1681526020019081526020016000206040518060400160405290816000820160009054906101000a900467ffffffffffffffff1667ffffffffffffffff1667ffffffffffffffff1681526020016000820160089054906101000a900460ff16151515158152505090506000816000015167ffffffffffffffff1611610483576040517f08c379a000000000000000000000000000000000000000000000000000000000815260040161047a90611a0a565b60405180910390fd5b60008160000151426104959190611b07565b905060008787878787338789602001516040516024016104bc9897969594939291906117db565b6040516020818303038152906040527fad7b49fb000000000000000000000000000000000000000000000000000000007bffffffffffffffffffffffffffffffffffffffffffffffffffffffff19166020820180517bffffffffffffffffffffffffffffffffffffffffffffffffffffffff838183161783525050505090508873ffffffffffffffffffffffffffffffffffffffff1663468721a73060008460006040518563ffffffff1660e01b815260040161057c9493929190611743565b602060405180830381600087803b15801561059657600080fd5b505af11580156105aa573d6000803e3d6000fd5b505050506040513d601f19601f820116820180604052508101906105ce919061143f565b61060d576040517f08c379a0000000000000000000000000000000000000000000000000000000008152600401610604906119ea565b60405180910390fd5b505050505050505050565b6000610628878787878787610f68565b90506000600160008381526020019081526020016000206040518060800160405290816000820160009054906101000a900473ffffffffffffffffffffffffffffffffffffffff1673ffffffffffffffffffffffffffffffffffffffff1673ffffffffffffffffffffffffffffffffffffffff1681526020016000820160149054906101000a900467ffffffffffffffff1667ffffffffffffffff1667ffffffffffffffff16815260200160008201601c9054906101000a900460ff1615151515815260200160008201601d9054906101000a900460ff161515151581525050905042816020015167ffffffffffffffff16111561075b576040517f08c379a0000000000000000000000000000000000000000000000000000000008152600401610752906119ca565b60405180910390fd5b8060400151158061080c575060008060008a73ffffffffffffffffffffffffffffffffffffffff1673ffffffffffffffffffffffffffffffffffffffff1681526020019081526020016000206000836000015173ffffffffffffffffffffffffffffffffffffffff1673ffffffffffffffffffffffffffffffffffffffff16815260200190815260200160002060000160009054906101000a900467ffffffffffffffff1667ffffffffffffffff16115b61084b576040517f08c379a000000000000000000000000000000000000000000000000000000000815260040161084290611a0a565b60405180910390fd5b6001816060019015159081151581525050806001600084815260200190815260200160002060008201518160000160006101000a81548173ffffffffffffffffffffffffffffffffffffffff021916908373ffffffffffffffffffffffffffffffffffffffff16021790555060208201518160000160146101000a81548167ffffffffffffffff021916908367ffffffffffffffff160217905550604082015181600001601c6101000a81548160ff021916908315150217905550606082015181600001601d6101000a81548160ff0219169083151502179055509050508773ffffffffffffffffffffffffffffffffffffffff1663468721a7888888886040518563ffffffff1660e01b8152600401610968949392919061178f565b602060405180830381600087803b15801561098257600080fd5b505af1158015610996573d6000803e3d6000fd5b505050506040513d601f19601f820116820180604052508101906109ba919061143f565b505050505050505050565b60016020528060005260406000206000915090508060000160009054906101000a900473ffffffffffffffffffffffffffffffffffffffff16908060000160149054906101000a900467ffffffffffffffff169080600001601c9054906101000a900460ff169080600001601d9054906101000a900460ff16905084565b7f26b3c09c30e365f49b0eb65e39ec1e16b5ebaded063648e49599b6b8abc3ba8681565b6040518060400160405280601a81526020017f44656c61796564205472616e73616374696f6e204d6f64756c6500000000000081525081565b6000610ab0338a8a8a8a8a610f68565b90506000600160008381526020019081526020016000206040518060800160405290816000820160009054906101000a900473ffffffffffffffffffffffffffffffffffffffff1673ffffffffffffffffffffffffffffffffffffffff1673ffffffffffffffffffffffffffffffffffffffff1681526020016000820160149054906101000a900467ffffffffffffffff1667ffffffffffffffff1667ffffffffffffffff16815260200160008201601c9054906101000a900460ff1615151515815260200160008201601d9054906101000a900460ff16151515158152505090508060600151158015610bb257506000816020015167ffffffffffffffff16145b610bf1576040517f08c379a0000000000000000000000000000000000000000000000000000000008152600401610be8906119aa565b60405180910390fd5b60405180608001604052808673ffffffffffffffffffffffffffffffffffffffff1681526020018567ffffffffffffffff1681526020018415158152602001600015158152506001600084815260200190815260200160002060008201518160000160006101000a81548173ffffffffffffffffffffffffffffffffffffffff021916908373ffffffffffffffffffffffffffffffffffffffff16021790555060208201518160000160146101000a81548167ffffffffffffffff021916908367ffffffffffffffff160217905550604082015181600001601c6101000a81548160ff021916908315150217905550606082015181600001601d6101000a81548160ff0219169083151502179055509050508473ffffffffffffffffffffffffffffffffffffffff163373ffffffffffffffffffffffffffffffffffffffff167fdb799d52da78807d5f62c8d7f10af33364d71380f01b766f0c0c92910a2d881b84604051610d6091906118a5565b60405180910390a350505050505050505050565b60405180604001604052808367ffffffffffffffff1681526020018215158152506000803373ffffffffffffffffffffffffffffffffffffffff1673ffffffffffffffffffffffffffffffffffffffff16815260200190815260200160002060008573ffffffffffffffffffffffffffffffffffffffff1673ffffffffffffffffffffffffffffffffffffffff16815260200190815260200160002060008201518160000160006101000a81548167ffffffffffffffff021916908367ffffffffffffffff16021790555060208201518160000160086101000a81548160ff0219169083151502179055509050508273ffffffffffffffffffffffffffffffffffffffff163373ffffffffffffffffffffffffffffffffffffffff167fd459ebb585b6b5e895cf275ed0046f1b4111b7171f4e67e0880016e3f9ba4dd48484604051610ec1929190611a45565b60405180910390a3505050565b6000610ede338787878787610f68565b905060016000828152602001908152602001600020600080820160006101000a81549073ffffffffffffffffffffffffffffffffffffffff02191690556000820160146101000a81549067ffffffffffffffff021916905560008201601c6101000a81549060ff021916905560008201601d6101000a81549060ff02191690555050505050505050565b6000610f78878787878787610f8b565b8051906020012090509695505050505050565b60606000610f9761034e565b905060007f47e79534a245952e8b16893a336b85a3d9ea9fa8c573f3d803afb92a7946921860001b8230604051602001610fd39392919061192f565b60405160208183030381529060405280519060200120905060007f26b3c09c30e365f49b0eb65e39ec1e16b5ebaded063648e49599b6b8abc3ba868a8a8a8a805190602001208a8a60405160200161103197969594939291906118c0565b604051602081830303815290604052805190602001209050601960f81b600160f81b838360405160200161106894939291906116f5565b60405160208183030381529060405293505050509695505050505050565b6040518060400160405280600581526020017f312e302e3000000000000000000000000000000000000000000000000000000081525081565b60006110d26110cd84611a9f565b611a6e565b9050828152602081018484840111156110ea57600080fd5b6110f5848285611c32565b509392505050565b60008135905061110c81611d3a565b92915050565b60008135905061112181611d51565b92915050565b60008151905061113681611d51565b92915050565b60008135905061114b81611d68565b92915050565b600082601f83011261116257600080fd5b81356111728482602086016110bf565b91505092915050565b60008135905061118a81611d7f565b92915050565b60008135905061119f81611d8f565b92915050565b6000813590506111b481611da6565b92915050565b600080604083850312156111cd57600080fd5b60006111db858286016110fd565b92505060206111ec858286016110fd565b9150509250929050565b60008060008060008060c0878903121561120f57600080fd5b600061121d89828a016110fd565b965050602061122e89828a016110fd565b955050604061123f89828a01611190565b945050606087013567ffffffffffffffff81111561125c57600080fd5b61126889828a01611151565b935050608061127989828a0161117b565b92505060a061128a89828a01611190565b9150509295509295509295565b600080600080600060a086880312156112af57600080fd5b60006112bd888289016110fd565b95505060206112ce88828901611190565b945050604086013567ffffffffffffffff8111156112eb57600080fd5b6112f788828901611151565b93505060606113088882890161117b565b925050608061131988828901611190565b9150509295509295909350565b600080600080600080600080610100898b03121561134357600080fd5b60006113518b828c016110fd565b98505060206113628b828c01611190565b975050604089013567ffffffffffffffff81111561137f57600080fd5b61138b8b828c01611151565b965050606061139c8b828c0161117b565b95505060806113ad8b828c01611190565b94505060a06113be8b828c016110fd565b93505060c06113cf8b828c016111a5565b92505060e06113e08b828c01611112565b9150509295985092959890939650565b60008060006060848603121561140557600080fd5b6000611413868287016110fd565b9350506020611424868287016111a5565b925050604061143586828701611112565b9150509250925092565b60006020828403121561145157600080fd5b600061145f84828501611127565b91505092915050565b60006020828403121561147a57600080fd5b60006114888482850161113c565b91505092915050565b61149a81611b45565b82525050565b6114a981611b57565b82525050565b6114c06114bb82611b63565b611c74565b82525050565b6114cf81611b8f565b82525050565b6114e66114e182611b8f565b611c7e565b82525050565b60006114f782611acf565b6115018185611ae5565b9350611511818560208601611c41565b61151a81611d15565b840191505092915050565b61152e81611bea565b82525050565b61153d81611c0e565b82525050565b61154c81611c20565b82525050565b600061155d82611ada565b6115678185611af6565b9350611577818560208601611c41565b61158081611d15565b840191505092915050565b6000611598602683611af6565b91507f43616e6e6f7420616e6e6f756e63652073616d65207472616e73616374696f6e60008301527f20616761696e00000000000000000000000000000000000000000000000000006020830152604082019050919050565b60006115fe601e83611af6565b91507f43616e6e6f742065786563757465207472616e73616374696f6e2079657400006000830152602082019050919050565b600061163e601e83611af6565b91507f436f756c64206e6f7420616e6e6f756e6365207472616e73616374696f6e00006000830152602082019050919050565b600061167e603683611af6565b91507f436f756c64206e6f742066696e642076616c696420636f6e66696720666f722060008301527f6578656375746f7220616e6420616e6e6f756e636572000000000000000000006020830152604082019050919050565b6116e081611bcc565b82525050565b6116ef81611bd6565b82525050565b600061170182876114af565b60018201915061171182866114af565b60018201915061172182856114d5565b60208201915061173182846114d5565b60208201915081905095945050505050565b60006080820190506117586000830187611491565b6117656020830186611543565b818103604083015261177781856114ec565b90506117866060830184611534565b95945050505050565b60006080820190506117a46000830187611491565b6117b160208301866116d7565b81810360408301526117c381856114ec565b90506117d26060830184611534565b95945050505050565b6000610100820190506117f1600083018b611491565b6117fe602083018a6116d7565b818103604083015261181081896114ec565b905061181f6060830188611534565b61182c60808301876116d7565b61183960a0830186611491565b61184660c08301856116e6565b61185360e08301846114a0565b9998505050505050505050565b60006080820190506118756000830187611491565b61188260208301866116e6565b61188f60408301856114a0565b61189c60608301846114a0565b95945050505050565b60006020820190506118ba60008301846114c6565b92915050565b600060e0820190506118d5600083018a6114c6565b6118e26020830189611491565b6118ef6040830188611491565b6118fc60608301876116d7565b61190960808301866114c6565b61191660a0830185611534565b61192360c08301846116d7565b98975050505050505050565b600060608201905061194460008301866114c6565b61195160208301856116d7565b61195e6040830184611525565b949350505050565b6000602082019050818103600083015261198081846114ec565b905092915050565b600060208201905081810360008301526119a28184611552565b905092915050565b600060208201905081810360008301526119c38161158b565b9050919050565b600060208201905081810360008301526119e3816115f1565b9050919050565b60006020820190508181036000830152611a0381611631565b9050919050565b60006020820190508181036000830152611a2381611671565b9050919050565b6000602082019050611a3f60008301846116d7565b92915050565b6000604082019050611a5a60008301856116e6565b611a6760208301846114a0565b9392505050565b6000604051905081810181811067ffffffffffffffff82111715611a9557611a94611ce6565b5b8060405250919050565b600067ffffffffffffffff821115611aba57611ab9611ce6565b5b601f19601f8301169050602081019050919050565b600081519050919050565b600081519050919050565b600082825260208201905092915050565b600082825260208201905092915050565b6000611b1282611bd6565b9150611b1d83611bd6565b92508267ffffffffffffffff03821115611b3a57611b39611c88565b5b828201905092915050565b6000611b5082611bac565b9050919050565b60008115159050919050565b60007fff0000000000000000000000000000000000000000000000000000000000000082169050919050565b6000819050919050565b6000819050611ba782611d26565b919050565b600073ffffffffffffffffffffffffffffffffffffffff82169050919050565b6000819050919050565b600067ffffffffffffffff82169050919050565b6000611bf582611bfc565b9050919050565b6000611c0782611bac565b9050919050565b6000611c1982611b99565b9050919050565b6000611c2b82611bcc565b9050919050565b82818337600083830152505050565b60005b83811015611c5f578082015181840152602081019050611c44565b83811115611c6e576000848401525b50505050565b6000819050919050565b6000819050919050565b7f4e487b7100000000000000000000000000000000000000000000000000000000600052601160045260246000fd5b7f4e487b7100000000000000000000000000000000000000000000000000000000600052602160045260246000fd5b7f4e487b7100000000000000000000000000000000000000000000000000000000600052604160045260246000fd5b6000601f19601f8301169050919050565b60028110611d3757611d36611cb7565b5b50565b611d4381611b45565b8114611d4e57600080fd5b50565b611d5a81611b57565b8114611d6557600080fd5b50565b611d7181611b8f565b8114611d7c57600080fd5b50565b60028110611d8c57600080fd5b50565b611d9881611bcc565b8114611da357600080fd5b50565b611daf81611bd6565b8114611dba57600080fd5b5056fea2646970667358221220e8ded097328aa92411adb734407aa5efbcb9cc068405494aaec70e68ebb3b74764736f6c63430008000033",
  "devdoc": {
    "kind": "dev",
    "methods": {
      "executeTransaction(address,address,uint256,bytes,uint8,uint256)": {
        "details": "This method can be triggered by anyone, as transaction announcement is authorized.",
        "params": {
          "data": "Data payload of delayed transaction.",
          "executor": "Contract that will execute the delayed transaction.",
          "nonce": "None of delayed transaction.",
          "operation": "Operation type of delayed transaction.",
          "to": "Destination address of delayed transaction.",
          "value": "Ether value of delayed transaction."
        }
      },
      "generateTransactionHashData(address,address,uint256,bytes,uint8,uint256)": {
        "details": "Generates the data for the delayed transaction hash (required for signing)"
      },
      "getChainId()": {
        "details": "Returns the chain id used by this contract."
      }
    },
    "version": 1
  },
  "userdoc": {
    "kind": "user",
    "methods": {
      "executeTransaction(address,address,uint256,bytes,uint8,uint256)": {
        "notice": "Allows to trigger execution of a delayed transaction that has been announced before."
      }
    },
    "version": 1
  },
  "storageLayout": {
    "storage": [
      {
        "astId": 74,
        "contract": "contracts/DelayedTxModule.sol:DelayedTxModule",
        "label": "configs",
        "offset": 0,
        "slot": "0",
        "type": "t_mapping(t_address,t_mapping(t_address,t_struct(Config)58_storage))"
      },
      {
        "astId": 79,
        "contract": "contracts/DelayedTxModule.sol:DelayedTxModule",
        "label": "announcements",
        "offset": 0,
        "slot": "1",
        "type": "t_mapping(t_bytes32,t_struct(Announcement)67_storage)"
      }
    ],
    "types": {
      "t_address": {
        "encoding": "inplace",
        "label": "address",
        "numberOfBytes": "20"
      },
      "t_bool": {
        "encoding": "inplace",
        "label": "bool",
        "numberOfBytes": "1"
      },
      "t_bytes32": {
        "encoding": "inplace",
        "label": "bytes32",
        "numberOfBytes": "32"
      },
      "t_mapping(t_address,t_mapping(t_address,t_struct(Config)58_storage))": {
        "encoding": "mapping",
        "key": "t_address",
        "label": "mapping(address => mapping(address => struct DelayedTxModule.Config))",
        "numberOfBytes": "32",
        "value": "t_mapping(t_address,t_struct(Config)58_storage)"
      },
      "t_mapping(t_address,t_struct(Config)58_storage)": {
        "encoding": "mapping",
        "key": "t_address",
        "label": "mapping(address => struct DelayedTxModule.Config)",
        "numberOfBytes": "32",
        "value": "t_struct(Config)58_storage"
      },
      "t_mapping(t_bytes32,t_struct(Announcement)67_storage)": {
        "encoding": "mapping",
        "key": "t_bytes32",
        "label": "mapping(bytes32 => struct DelayedTxModule.Announcement)",
        "numberOfBytes": "32",
        "value": "t_struct(Announcement)67_storage"
      },
      "t_struct(Announcement)67_storage": {
        "encoding": "inplace",
        "label": "struct DelayedTxModule.Announcement",
        "members": [
          {
            "astId": 60,
            "contract": "contracts/DelayedTxModule.sol:DelayedTxModule",
            "label": "announcer",
            "offset": 0,
            "slot": "0",
            "type": "t_address"
          },
          {
            "astId": 62,
            "contract": "contracts/DelayedTxModule.sol:DelayedTxModule",
            "label": "execTime",
            "offset": 20,
            "slot": "0",
            "type": "t_uint64"
          },
          {
            "astId": 64,
            "contract": "contracts/DelayedTxModule.sol:DelayedTxModule",
            "label": "requireAnnouncer",
            "offset": 28,
            "slot": "0",
            "type": "t_bool"
          },
          {
            "astId": 66,
            "contract": "contracts/DelayedTxModule.sol:DelayedTxModule",
            "label": "executed",
            "offset": 29,
            "slot": "0",
            "type": "t_bool"
          }
        ],
        "numberOfBytes": "32"
      },
      "t_struct(Config)58_storage": {
        "encoding": "inplace",
        "label": "struct DelayedTxModule.Config",
        "members": [
          {
            "astId": 55,
            "contract": "contracts/DelayedTxModule.sol:DelayedTxModule",
            "label": "delay",
            "offset": 0,
            "slot": "0",
            "type": "t_uint64"
          },
          {
            "astId": 57,
            "contract": "contracts/DelayedTxModule.sol:DelayedTxModule",
            "label": "requireAnnouncer",
            "offset": 8,
            "slot": "0",
            "type": "t_bool"
          }
        ],
        "numberOfBytes": "32"
      },
      "t_uint64": {
        "encoding": "inplace",
        "label": "uint64",
        "numberOfBytes": "8"
      }
    }
  }
}